{
  "contractName": "MedicalSupplyChain",
  "abi": [
    {
      "anonymous": false,
      "inputs": [
        {
          "indexed": true,
          "internalType": "uint256",
          "name": "index",
          "type": "uint256"
        },
        {
          "indexed": true,
          "internalType": "address",
          "name": "supplier",
          "type": "address"
        },
        {
          "indexed": true,
          "internalType": "address",
          "name": "deliveryCompany",
          "type": "address"
        }
      ],
      "name": "OrderAccepted",
      "type": "event"
    },
    {
      "anonymous": false,
      "inputs": [
        {
          "indexed": true,
          "internalType": "uint256",
          "name": "index",
          "type": "uint256"
        },
        {
          "indexed": true,
          "internalType": "address",
          "name": "deliveryCompany",
          "type": "address"
        },
        {
          "indexed": true,
          "internalType": "address",
          "name": "customer",
          "type": "address"
        }
      ],
      "name": "OrderCreated",
      "type": "event"
    },
    {
      "anonymous": false,
      "inputs": [
        {
          "indexed": true,
          "internalType": "uint256",
          "name": "index",
          "type": "uint256"
        },
        {
          "indexed": true,
          "internalType": "address",
          "name": "supplier",
          "type": "address"
        },
        {
          "indexed": true,
          "internalType": "address",
          "name": "deliveryCompany",
          "type": "address"
        }
      ],
      "name": "OrderDeclined",
      "type": "event"
    },
    {
      "anonymous": false,
      "inputs": [
        {
          "indexed": true,
          "internalType": "uint256",
          "name": "index",
          "type": "uint256"
        },
        {
          "indexed": true,
          "internalType": "address",
          "name": "supplier",
          "type": "address"
        },
        {
          "indexed": true,
          "internalType": "address",
          "name": "customer",
          "type": "address"
        }
      ],
      "name": "OrderDelivered",
      "type": "event"
    },
    {
      "anonymous": false,
      "inputs": [
        {
          "indexed": true,
          "internalType": "uint256",
          "name": "index",
          "type": "uint256"
        },
        {
          "indexed": true,
          "internalType": "address",
          "name": "supplier",
          "type": "address"
        },
        {
          "indexed": true,
          "internalType": "address",
          "name": "customer",
          "type": "address"
        }
      ],
      "name": "OrderDelivering",
      "type": "event"
    },
    {
      "inputs": [
        {
          "internalType": "uint256",
          "name": "",
          "type": "uint256"
        }
      ],
      "name": "orders",
      "outputs": [
        {
          "internalType": "string",
          "name": "title",
          "type": "string"
        },
        {
          "internalType": "string",
          "name": "description",
          "type": "string"
        },
        {
          "internalType": "address",
          "name": "supplier",
          "type": "address"
        },
        {
          "internalType": "address",
          "name": "deliveryCompany",
          "type": "address"
        },
        {
          "internalType": "address",
          "name": "customer",
          "type": "address"
        },
        {
          "internalType": "enum MedicalSupplyChain.Status",
          "name": "status",
          "type": "uint8"
        }
      ],
      "stateMutability": "view",
      "type": "function",
      "constant": true
    },
    {
      "inputs": [
        {
          "internalType": "address",
          "name": "",
          "type": "address"
        },
        {
          "internalType": "uint256",
          "name": "",
          "type": "uint256"
        }
      ],
      "name": "selfOrders",
      "outputs": [
        {
          "internalType": "uint256",
          "name": "",
          "type": "uint256"
        }
      ],
      "stateMutability": "view",
      "type": "function",
      "constant": true
    },
    {
      "inputs": [
        {
          "internalType": "uint256",
          "name": "_index",
          "type": "uint256"
        }
      ],
      "name": "getOrder",
      "outputs": [
        {
          "internalType": "string",
          "name": "title",
          "type": "string"
        },
        {
          "internalType": "string",
          "name": "description",
          "type": "string"
        },
        {
          "internalType": "address",
          "name": "supplier",
          "type": "address"
        },
        {
          "internalType": "address",
          "name": "deliveryCompany",
          "type": "address"
        },
        {
          "internalType": "address",
          "name": "customer",
          "type": "address"
        },
        {
          "internalType": "enum MedicalSupplyChain.Status",
          "name": "status",
          "type": "uint8"
        }
      ],
      "stateMutability": "view",
      "type": "function",
      "constant": true
    },
    {
      "inputs": [
        {
          "internalType": "string",
          "name": "_title",
          "type": "string"
        },
        {
          "internalType": "string",
          "name": "_description",
          "type": "string"
        },
        {
          "internalType": "address",
          "name": "_deliveryCompany",
          "type": "address"
        },
        {
          "internalType": "address",
          "name": "_customer",
          "type": "address"
        }
      ],
      "name": "createOrder",
      "outputs": [
        {
          "internalType": "uint256",
          "name": "",
          "type": "uint256"
        }
      ],
      "stateMutability": "nonpayable",
      "type": "function"
    },
    {
      "inputs": [
        {
          "internalType": "uint256",
          "name": "_index",
          "type": "uint256"
        }
      ],
      "name": "startDeliveringOrder",
      "outputs": [],
      "stateMutability": "nonpayable",
      "type": "function"
    },
    {
      "inputs": [
        {
          "internalType": "uint256",
          "name": "_index",
          "type": "uint256"
        }
      ],
      "name": "stopDeliveryOrder",
      "outputs": [],
      "stateMutability": "nonpayable",
      "type": "function"
    },
    {
      "inputs": [
        {
          "internalType": "uint256",
          "name": "_index",
          "type": "uint256"
        }
      ],
      "name": "acceptOrder",
      "outputs": [],
      "stateMutability": "nonpayable",
      "type": "function"
    },
    {
      "inputs": [
        {
          "internalType": "uint256",
          "name": "_index",
          "type": "uint256"
        }
      ],
      "name": "declineOrder",
      "outputs": [],
      "stateMutability": "nonpayable",
      "type": "function"
    },
    {
      "inputs": [
        {
          "internalType": "address",
          "name": "_address",
          "type": "address"
        }
      ],
      "name": "getSelfOrders",
      "outputs": [
        {
          "components": [
            {
              "internalType": "string",
              "name": "title",
              "type": "string"
            },
            {
              "internalType": "string",
              "name": "description",
              "type": "string"
            },
            {
              "internalType": "address",
              "name": "supplier",
              "type": "address"
            },
            {
              "internalType": "address",
              "name": "deliveryCompany",
              "type": "address"
            },
            {
              "internalType": "address",
              "name": "customer",
              "type": "address"
            },
            {
              "internalType": "enum MedicalSupplyChain.Status",
              "name": "status",
              "type": "uint8"
            }
          ],
          "internalType": "struct MedicalSupplyChain.Order[]",
          "name": "",
          "type": "tuple[]"
        }
      ],
      "stateMutability": "view",
      "type": "function",
      "constant": true
    },
    {
      "inputs": [],
      "name": "getOrdersCount",
      "outputs": [
        {
          "internalType": "uint256",
          "name": "",
          "type": "uint256"
        }
      ],
      "stateMutability": "view",
      "type": "function",
      "constant": true
    }
  ],
  "bytecode": "0x608060405234801561001057600080fd5b506129c8806100206000396000f3fe608060405234801561001057600080fd5b506004361061009e5760003560e01c8063aa6e2a7211610066578063aa6e2a7214610170578063b5b3b051146101a0578063ccbdb85c146101be578063d09ef241146101da578063ef18e9ed1461020f5761009e565b80634afe00c2146100a35780636c52b59f146100bf57806384e9d538146100ef578063a85c38ef1461010b578063a9d1af8814610140575b600080fd5b6100bd60048036038101906100b891906120cd565b61022b565b005b6100d960048036038101906100d49190611fd5565b610558565b6040516100e691906124f2565b60405180910390f35b610109600480360381019061010491906120cd565b610a19565b005b610125600480360381019061012091906120cd565b610d46565b60405161013796959493929190612514565b60405180910390f35b61015a60048036038101906101559190611ffe565b610f0f565b6040516101679190612683565b60405180910390f35b61018a6004803603810190610185919061203a565b610f40565b6040516101979190612683565b60405180910390f35b6101a8611403565b6040516101b59190612683565b60405180910390f35b6101d860048036038101906101d391906120cd565b61140f565b005b6101f460048036038101906101ef91906120cd565b61173c565b60405161020696959493929190612514565b60405180910390f35b610229600480360381019061022491906120cd565b611ac3565b005b803373ffffffffffffffffffffffffffffffffffffffff166000828154811061027d577f4e487b7100000000000000000000000000000000000000000000000000000000600052603260045260246000fd5b906000526020600020906005020160030160009054906101000a900473ffffffffffffffffffffffffffffffffffffffff1673ffffffffffffffffffffffffffffffffffffffff1614610305576040517f08c379a00000000000000000000000000000000000000000000000000000000081526004016102fc906125e3565b60405180910390fd5b8160016004811115610340577f4e487b7100000000000000000000000000000000000000000000000000000000600052602160045260246000fd5b6000828154811061037a577f4e487b7100000000000000000000000000000000000000000000000000000000600052603260045260246000fd5b906000526020600020906005020160040160149054906101000a900460ff1660048111156103d1577f4e487b7100000000000000000000000000000000000000000000000000000000600052602160045260246000fd5b14610411576040517f08c379a000000000000000000000000000000000000000000000000000000000815260040161040890612663565b60405180910390fd5b600080848154811061044c577f4e487b7100000000000000000000000000000000000000000000000000000000600052603260045260246000fd5b906000526020600020906005020190508060040160009054906101000a900473ffffffffffffffffffffffffffffffffffffffff1673ffffffffffffffffffffffffffffffffffffffff168160020160009054906101000a900473ffffffffffffffffffffffffffffffffffffffff1673ffffffffffffffffffffffffffffffffffffffff16857fdc1e5c46473f967c85111ae5c5574dd672193f524398a75ee01ff59586c224a660405160405180910390a460028160040160146101000a81548160ff0219169083600481111561054d577f4e487b7100000000000000000000000000000000000000000000000000000000600052602160045260246000fd5b021790555050505050565b60606000600160008473ffffffffffffffffffffffffffffffffffffffff1673ffffffffffffffffffffffffffffffffffffffff1681526020019081526020016000208054806020026020016040519081016040528092919081815260200182805480156105e557602002820191906000526020600020905b8154815260200190600101908083116105d1575b505050505090506000815167ffffffffffffffff81111561062f577f4e487b7100000000000000000000000000000000000000000000000000000000600052604160045260246000fd5b60405190808252806020026020018201604052801561066857816020015b610655611df0565b81526020019060019003908161064d5790505b50905060005b8251811015610a0e5760008382815181106106b2577f4e487b7100000000000000000000000000000000000000000000000000000000600052603260045260246000fd5b6020026020010151815481106106f1577f4e487b7100000000000000000000000000000000000000000000000000000000600052603260045260246000fd5b90600052602060002090600502016040518060c001604052908160008201805461071a90612808565b80601f016020809104026020016040519081016040528092919081815260200182805461074690612808565b80156107935780601f1061076857610100808354040283529160200191610793565b820191906000526020600020905b81548152906001019060200180831161077657829003601f168201915b505050505081526020016001820180546107ac90612808565b80601f01602080910402602001604051908101604052809291908181526020018280546107d890612808565b80156108255780601f106107fa57610100808354040283529160200191610825565b820191906000526020600020905b81548152906001019060200180831161080857829003601f168201915b505050505081526020016002820160009054906101000a900473ffffffffffffffffffffffffffffffffffffffff1673ffffffffffffffffffffffffffffffffffffffff1673ffffffffffffffffffffffffffffffffffffffff1681526020016003820160009054906101000a900473ffffffffffffffffffffffffffffffffffffffff1673ffffffffffffffffffffffffffffffffffffffff1673ffffffffffffffffffffffffffffffffffffffff1681526020016004820160009054906101000a900473ffffffffffffffffffffffffffffffffffffffff1673ffffffffffffffffffffffffffffffffffffffff1673ffffffffffffffffffffffffffffffffffffffff1681526020016004820160149054906101000a900460ff16600481111561097b577f4e487b7100000000000000000000000000000000000000000000000000000000600052602160045260246000fd5b60048111156109b3577f4e487b7100000000000000000000000000000000000000000000000000000000600052602160045260246000fd5b815250508282815181106109f0577f4e487b7100000000000000000000000000000000000000000000000000000000600052603260045260246000fd5b60200260200101819052508080610a069061283a565b91505061066e565b508092505050919050565b803373ffffffffffffffffffffffffffffffffffffffff1660008281548110610a6b577f4e487b7100000000000000000000000000000000000000000000000000000000600052603260045260246000fd5b906000526020600020906005020160030160009054906101000a900473ffffffffffffffffffffffffffffffffffffffff1673ffffffffffffffffffffffffffffffffffffffff1614610af3576040517f08c379a0000000000000000000000000000000000000000000000000000000008152600401610aea906125e3565b60405180910390fd5b8160006004811115610b2e577f4e487b7100000000000000000000000000000000000000000000000000000000600052602160045260246000fd5b60008281548110610b68577f4e487b7100000000000000000000000000000000000000000000000000000000600052603260045260246000fd5b906000526020600020906005020160040160149054906101000a900460ff166004811115610bbf577f4e487b7100000000000000000000000000000000000000000000000000000000600052602160045260246000fd5b14610bff576040517f08c379a0000000000000000000000000000000000000000000000000000000008152600401610bf6906125c3565b60405180910390fd5b6000808481548110610c3a577f4e487b7100000000000000000000000000000000000000000000000000000000600052603260045260246000fd5b906000526020600020906005020190508060040160009054906101000a900473ffffffffffffffffffffffffffffffffffffffff1673ffffffffffffffffffffffffffffffffffffffff168160020160009054906101000a900473ffffffffffffffffffffffffffffffffffffffff1673ffffffffffffffffffffffffffffffffffffffff16857f8f3a13f55e685e5c9e7796435daa54d081fdc930d7079309a7b178fc4fb3cc2f60405160405180910390a460018160040160146101000a81548160ff02191690836004811115610d3b577f4e487b7100000000000000000000000000000000000000000000000000000000600052602160045260246000fd5b021790555050505050565b60008181548110610d5657600080fd5b9060005260206000209060050201600091509050806000018054610d7990612808565b80601f0160208091040260200160405190810160405280929190818152602001828054610da590612808565b8015610df25780601f10610dc757610100808354040283529160200191610df2565b820191906000526020600020905b815481529060010190602001808311610dd557829003601f168201915b505050505090806001018054610e0790612808565b80601f0160208091040260200160405190810160405280929190818152602001828054610e3390612808565b8015610e805780601f10610e5557610100808354040283529160200191610e80565b820191906000526020600020905b815481529060010190602001808311610e6357829003601f168201915b5050505050908060020160009054906101000a900473ffffffffffffffffffffffffffffffffffffffff16908060030160009054906101000a900473ffffffffffffffffffffffffffffffffffffffff16908060040160009054906101000a900473ffffffffffffffffffffffffffffffffffffffff16908060040160149054906101000a900460ff16905086565b60016020528160005260406000208181548110610f2b57600080fd5b90600052602060002001600091509150505481565b60008073ffffffffffffffffffffffffffffffffffffffff168373ffffffffffffffffffffffffffffffffffffffff161415610fb1576040517f08c379a0000000000000000000000000000000000000000000000000000000008152600401610fa890612603565b60405180910390fd5b600073ffffffffffffffffffffffffffffffffffffffff168273ffffffffffffffffffffffffffffffffffffffff161415611021576040517f08c379a0000000000000000000000000000000000000000000000000000000008152600401611018906125a3565b60405180910390fd5b60006040518060c001604052808781526020018681526020013373ffffffffffffffffffffffffffffffffffffffff1681526020018573ffffffffffffffffffffffffffffffffffffffff1681526020018473ffffffffffffffffffffffffffffffffffffffff168152602001600060048111156110c8577f4e487b7100000000000000000000000000000000000000000000000000000000600052602160045260246000fd5b81525090506000808054905090508373ffffffffffffffffffffffffffffffffffffffff168573ffffffffffffffffffffffffffffffffffffffff16827fd4e0aaf5be9b8773c644dfebba8b63f878965712ad8589d85ca4bc9d1b671e2c60405160405180910390a460008290806001815401808255809150506001900390600052602060002090600502016000909190919091506000820151816000019080519060200190611179929190611ea0565b506020820151816001019080519060200190611196929190611ea0565b5060408201518160020160006101000a81548173ffffffffffffffffffffffffffffffffffffffff021916908373ffffffffffffffffffffffffffffffffffffffff16021790555060608201518160030160006101000a81548173ffffffffffffffffffffffffffffffffffffffff021916908373ffffffffffffffffffffffffffffffffffffffff16021790555060808201518160040160006101000a81548173ffffffffffffffffffffffffffffffffffffffff021916908373ffffffffffffffffffffffffffffffffffffffff16021790555060a08201518160040160146101000a81548160ff021916908360048111156112bd577f4e487b7100000000000000000000000000000000000000000000000000000000600052602160045260246000fd5b02179055505050600160003373ffffffffffffffffffffffffffffffffffffffff1673ffffffffffffffffffffffffffffffffffffffff168152602001908152602001600020819080600181540180825580915050600190039060005260206000200160009091909190915055600160008673ffffffffffffffffffffffffffffffffffffffff1673ffffffffffffffffffffffffffffffffffffffff168152602001908152602001600020819080600181540180825580915050600190039060005260206000200160009091909190915055600160008573ffffffffffffffffffffffffffffffffffffffff1673ffffffffffffffffffffffffffffffffffffffff1681526020019081526020016000208190806001815401808255809150506001900390600052602060002001600090919091909150558092505050949350505050565b60008080549050905090565b803373ffffffffffffffffffffffffffffffffffffffff1660008281548110611461577f4e487b7100000000000000000000000000000000000000000000000000000000600052603260045260246000fd5b906000526020600020906005020160040160009054906101000a900473ffffffffffffffffffffffffffffffffffffffff1673ffffffffffffffffffffffffffffffffffffffff16146114e9576040517f08c379a00000000000000000000000000000000000000000000000000000000081526004016114e090612623565b60405180910390fd5b8160026004811115611524577f4e487b7100000000000000000000000000000000000000000000000000000000600052602160045260246000fd5b6000828154811061155e577f4e487b7100000000000000000000000000000000000000000000000000000000600052603260045260246000fd5b906000526020600020906005020160040160149054906101000a900460ff1660048111156115b5577f4e487b7100000000000000000000000000000000000000000000000000000000600052602160045260246000fd5b146115f5576040517f08c379a00000000000000000000000000000000000000000000000000000000081526004016115ec90612583565b60405180910390fd5b6000808481548110611630577f4e487b7100000000000000000000000000000000000000000000000000000000600052603260045260246000fd5b906000526020600020906005020190508060030160009054906101000a900473ffffffffffffffffffffffffffffffffffffffff1673ffffffffffffffffffffffffffffffffffffffff168160020160009054906101000a900473ffffffffffffffffffffffffffffffffffffffff1673ffffffffffffffffffffffffffffffffffffffff16857fb8233a4535381de2b5df1795d3af5bfec3ce5afc185a31949f27b49938cb232160405160405180910390a460048160040160146101000a81548160ff02191690836004811115611731577f4e487b7100000000000000000000000000000000000000000000000000000000600052602160045260246000fd5b021790555050505050565b606080600080600080600080549050871061178c576040517f08c379a000000000000000000000000000000000000000000000000000000000815260040161178390612643565b60405180910390fd5b60008088815481106117c7577f4e487b7100000000000000000000000000000000000000000000000000000000600052603260045260246000fd5b90600052602060002090600502016040518060c00160405290816000820180546117f090612808565b80601f016020809104026020016040519081016040528092919081815260200182805461181c90612808565b80156118695780601f1061183e57610100808354040283529160200191611869565b820191906000526020600020905b81548152906001019060200180831161184c57829003601f168201915b5050505050815260200160018201805461188290612808565b80601f01602080910402602001604051908101604052809291908181526020018280546118ae90612808565b80156118fb5780601f106118d0576101008083540402835291602001916118fb565b820191906000526020600020905b8154815290600101906020018083116118de57829003601f168201915b505050505081526020016002820160009054906101000a900473ffffffffffffffffffffffffffffffffffffffff1673ffffffffffffffffffffffffffffffffffffffff1673ffffffffffffffffffffffffffffffffffffffff1681526020016003820160009054906101000a900473ffffffffffffffffffffffffffffffffffffffff1673ffffffffffffffffffffffffffffffffffffffff1673ffffffffffffffffffffffffffffffffffffffff1681526020016004820160009054906101000a900473ffffffffffffffffffffffffffffffffffffffff1673ffffffffffffffffffffffffffffffffffffffff1673ffffffffffffffffffffffffffffffffffffffff1681526020016004820160149054906101000a900460ff166004811115611a51577f4e487b7100000000000000000000000000000000000000000000000000000000600052602160045260246000fd5b6004811115611a89577f4e487b7100000000000000000000000000000000000000000000000000000000600052602160045260246000fd5b815250509050806000015181602001518260400151836060015184608001518560a001519650965096509650965096505091939550919395565b803373ffffffffffffffffffffffffffffffffffffffff1660008281548110611b15577f4e487b7100000000000000000000000000000000000000000000000000000000600052603260045260246000fd5b906000526020600020906005020160040160009054906101000a900473ffffffffffffffffffffffffffffffffffffffff1673ffffffffffffffffffffffffffffffffffffffff1614611b9d576040517f08c379a0000000000000000000000000000000000000000000000000000000008152600401611b9490612623565b60405180910390fd5b8160026004811115611bd8577f4e487b7100000000000000000000000000000000000000000000000000000000600052602160045260246000fd5b60008281548110611c12577f4e487b7100000000000000000000000000000000000000000000000000000000600052603260045260246000fd5b906000526020600020906005020160040160149054906101000a900460ff166004811115611c69577f4e487b7100000000000000000000000000000000000000000000000000000000600052602160045260246000fd5b14611ca9576040517f08c379a0000000000000000000000000000000000000000000000000000000008152600401611ca090612583565b60405180910390fd5b6000808481548110611ce4577f4e487b7100000000000000000000000000000000000000000000000000000000600052603260045260246000fd5b906000526020600020906005020190508060030160009054906101000a900473ffffffffffffffffffffffffffffffffffffffff1673ffffffffffffffffffffffffffffffffffffffff168160020160009054906101000a900473ffffffffffffffffffffffffffffffffffffffff1673ffffffffffffffffffffffffffffffffffffffff16857f8ae2f67332c70e85a9bd2dc029a84b58b0e0b37eed94bb01fe19283e259f859260405160405180910390a460038160040160146101000a81548160ff02191690836004811115611de5577f4e487b7100000000000000000000000000000000000000000000000000000000600052602160045260246000fd5b021790555050505050565b6040518060c001604052806060815260200160608152602001600073ffffffffffffffffffffffffffffffffffffffff168152602001600073ffffffffffffffffffffffffffffffffffffffff168152602001600073ffffffffffffffffffffffffffffffffffffffff16815260200160006004811115611e9a577f4e487b7100000000000000000000000000000000000000000000000000000000600052602160045260246000fd5b81525090565b828054611eac90612808565b90600052602060002090601f016020900481019282611ece5760008555611f15565b82601f10611ee757805160ff1916838001178555611f15565b82800160010185558215611f15579182015b82811115611f14578251825591602001919060010190611ef9565b5b509050611f229190611f26565b5090565b5b80821115611f3f576000816000905550600101611f27565b5090565b6000611f56611f51846126cf565b61269e565b905082815260208101848484011115611f6e57600080fd5b611f798482856127c6565b509392505050565b600081359050611f9081612964565b92915050565b600082601f830112611fa757600080fd5b8135611fb7848260208601611f43565b91505092915050565b600081359050611fcf8161297b565b92915050565b600060208284031215611fe757600080fd5b6000611ff584828501611f81565b91505092915050565b6000806040838503121561201157600080fd5b600061201f85828601611f81565b925050602061203085828601611fc0565b9150509250929050565b6000806000806080858703121561205057600080fd5b600085013567ffffffffffffffff81111561206a57600080fd5b61207687828801611f96565b945050602085013567ffffffffffffffff81111561209357600080fd5b61209f87828801611f96565b93505060406120b087828801611f81565b92505060606120c187828801611f81565b91505092959194509250565b6000602082840312156120df57600080fd5b60006120ed84828501611fc0565b91505092915050565b60006121028383612453565b905092915050565b61211381612765565b82525050565b61212281612765565b82525050565b60006121338261270f565b61213d8185612732565b93508360208202850161214f856126ff565b8060005b8581101561218b578484038952815161216c85826120f6565b945061217783612725565b925060208a01995050600181019050612153565b50829750879550505050505092915050565b6121a6816127b4565b82525050565b6121b5816127b4565b82525050565b60006121c68261271a565b6121d08185612743565b93506121e08185602086016127d5565b6121e98161293f565b840191505092915050565b60006121ff8261271a565b6122098185612754565b93506122198185602086016127d5565b6122228161293f565b840191505092915050565b600061223a602083612754565b91507f4f72646572206973206e6f7420696e2044656c697665726564207374617475736000830152602082019050919050565b600061227a601883612754565b91507f496e76616c696420637573746f6d6572206164647265737300000000000000006000830152602082019050919050565b60006122ba601e83612754565b91507f4f72646572206973206e6f7420696e20437265617465642073746174757300006000830152602082019050919050565b60006122fa601883612754565b91507f4e6f74207468652064656c697665727920636f6d70616e7900000000000000006000830152602082019050919050565b600061233a602083612754565b91507f496e76616c69642064656c697665727920636f6d70616e7920616464726573736000830152602082019050919050565b600061237a601083612754565b91507f4e6f742074686520637573746f6d6572000000000000000000000000000000006000830152602082019050919050565b60006123ba601383612754565b91507f496e646578206f7574206f6620626f756e6473000000000000000000000000006000830152602082019050919050565b60006123fa602183612754565b91507f4f72646572206973206e6f7420696e2044656c69766572696e6720737461747560008301527f73000000000000000000000000000000000000000000000000000000000000006020830152604082019050919050565b600060c083016000830151848203600086015261247082826121bb565b9150506020830151848203602086015261248a82826121bb565b915050604083015161249f604086018261210a565b5060608301516124b2606086018261210a565b5060808301516124c5608086018261210a565b5060a08301516124d860a086018261219d565b508091505092915050565b6124ec816127aa565b82525050565b6000602082019050818103600083015261250c8184612128565b905092915050565b600060c082019050818103600083015261252e81896121f4565b9050818103602083015261254281886121f4565b90506125516040830187612119565b61255e6060830186612119565b61256b6080830185612119565b61257860a08301846121ac565b979650505050505050565b6000602082019050818103600083015261259c8161222d565b9050919050565b600060208201905081810360008301526125bc8161226d565b9050919050565b600060208201905081810360008301526125dc816122ad565b9050919050565b600060208201905081810360008301526125fc816122ed565b9050919050565b6000602082019050818103600083015261261c8161232d565b9050919050565b6000602082019050818103600083015261263c8161236d565b9050919050565b6000602082019050818103600083015261265c816123ad565b9050919050565b6000602082019050818103600083015261267c816123ed565b9050919050565b600060208201905061269860008301846124e3565b92915050565b6000604051905081810181811067ffffffffffffffff821117156126c5576126c4612910565b5b8060405250919050565b600067ffffffffffffffff8211156126ea576126e9612910565b5b601f19601f8301169050602081019050919050565b6000819050602082019050919050565b600081519050919050565b600081519050919050565b6000602082019050919050565b600082825260208201905092915050565b600082825260208201905092915050565b600082825260208201905092915050565b60006127708261278a565b9050919050565b600081905061278582612950565b919050565b600073ffffffffffffffffffffffffffffffffffffffff82169050919050565b6000819050919050565b60006127bf82612777565b9050919050565b82818337600083830152505050565b60005b838110156127f35780820151818401526020810190506127d8565b83811115612802576000848401525b50505050565b6000600282049050600182168061282057607f821691505b60208210811415612834576128336128e1565b5b50919050565b6000612845826127aa565b91507fffffffffffffffffffffffffffffffffffffffffffffffffffffffffffffffff82141561287857612877612883565b5b600182019050919050565b7f4e487b7100000000000000000000000000000000000000000000000000000000600052601160045260246000fd5b7f4e487b7100000000000000000000000000000000000000000000000000000000600052602160045260246000fd5b7f4e487b7100000000000000000000000000000000000000000000000000000000600052602260045260246000fd5b7f4e487b7100000000000000000000000000000000000000000000000000000000600052604160045260246000fd5b6000601f19601f8301169050919050565b60058110612961576129606128b2565b5b50565b61296d81612765565b811461297857600080fd5b50565b612984816127aa565b811461298f57600080fd5b5056fea2646970667358221220fda9e1ebe0f361b652c84e27f6a612117397a848f2c89be6d2e0e58a9e98557d64736f6c63430008000033",
  "immutableReferences": {},
  "source": "pragma solidity ^0.8.0;\r\n// SPDX-License-Identifier: Apache-2.0\r\n\r\ncontract MedicalSupplyChain {\r\n    enum Status {Created, Delivering, Delivered, Accepted, Declined}\r\n\r\n    struct Order {\r\n        string title;\r\n        string description;\r\n        address supplier;\r\n        address deliveryCompany;\r\n        address customer;\r\n        Status status;\r\n    }\r\n\r\n    Order[] public orders;\r\n    mapping(address => uint256[]) public selfOrders;\r\n\r\n    // Events to track changes\r\n    event OrderCreated(uint256 indexed index, address indexed deliveryCompany, address indexed customer);\r\n    event OrderDelivering(uint256 indexed index, address indexed supplier, address indexed customer);\r\n    event OrderDelivered(uint256 indexed index, address indexed supplier, address indexed customer);\r\n    event OrderAccepted(uint256 indexed index, address indexed supplier, address indexed deliveryCompany);\r\n    event OrderDeclined(uint256 indexed index, address indexed supplier, address indexed deliveryCompany);\r\n\r\n    modifier onlyOrderDeliveryCompany(uint256 _index) {\r\n        require(orders[_index].deliveryCompany == msg.sender, \"Not the delivery company\");\r\n        _;\r\n    }\r\n\r\n    modifier onlyCustomer(uint256 _index) {\r\n        require(orders[_index].customer == msg.sender, \"Not the customer\");\r\n        _;\r\n    }\r\n\r\n    modifier orderCreated(uint256 _index) {\r\n        require(orders[_index].status == Status.Created, \"Order is not in Created status\");\r\n        _;\r\n    }\r\n\r\n    modifier orderDelivering(uint256 _index) {\r\n        require(orders[_index].status == Status.Delivering, \"Order is not in Delivering status\");\r\n        _;\r\n    }\r\n\r\n    modifier orderDelivered(uint256 _index) {\r\n        require(orders[_index].status == Status.Delivered, \"Order is not in Delivered status\");\r\n        _;\r\n    }\r\n\r\n    // Get details of an order by index\r\n    function getOrder(uint256 _index) public view returns (\r\n        string memory title,\r\n        string memory description,\r\n        address supplier,\r\n        address deliveryCompany,\r\n        address customer,\r\n        Status status\r\n    ) {\r\n        require(_index < orders.length, \"Index out of bounds\");\r\n        Order memory order = orders[_index];\r\n        return (order.title, order.description, order.supplier, order.deliveryCompany, order.customer, order.status);\r\n    }\r\n\r\n    // Create an order and push it to the orders array\r\n    function createOrder(\r\n        string memory _title,\r\n        string memory _description,\r\n        address _deliveryCompany,\r\n        address _customer\r\n    ) public returns (uint256) {\r\n        require(_deliveryCompany != address(0), \"Invalid delivery company address\");\r\n        require(_customer != address(0), \"Invalid customer address\");\r\n\r\n        Order memory order = Order({\r\n            title: _title,\r\n            description: _description,\r\n            supplier: msg.sender,\r\n            deliveryCompany: _deliveryCompany,\r\n            customer: _customer,\r\n            status: Status.Created\r\n        });\r\n\r\n        uint256 index = orders.length;\r\n        emit OrderCreated(index, _deliveryCompany, _customer);\r\n        orders.push(order); \r\n        \r\n        // Store the index of the order for the involved parties\r\n        selfOrders[msg.sender].push(index);\r\n        selfOrders[_deliveryCompany].push(index);\r\n        selfOrders[_customer].push(index);\r\n\r\n        return index;\r\n    }\r\n\r\n    // Start delivery for an order\r\n    function startDeliveringOrder(uint256 _index) public onlyOrderDeliveryCompany(_index) orderCreated(_index) {\r\n        Order storage order = orders[_index];\r\n        emit OrderDelivering(_index, order.supplier, order.customer);\r\n        order.status = Status.Delivering;\r\n    }\r\n\r\n    // Stop delivery for an order\r\n    function stopDeliveryOrder(uint256 _index) public onlyOrderDeliveryCompany(_index) orderDelivering(_index) {\r\n        Order storage order = orders[_index];\r\n        emit OrderDelivered(_index, order.supplier, order.customer);\r\n        order.status = Status.Delivered;\r\n    }\r\n\r\n    // Accept the order\r\n    function acceptOrder(uint256 _index) public onlyCustomer(_index) orderDelivered(_index) {\r\n        Order storage order = orders[_index];\r\n        emit OrderAccepted(_index, order.supplier, order.deliveryCompany);\r\n        order.status = Status.Accepted;\r\n    }\r\n\r\n    // Decline the order\r\n    function declineOrder(uint256 _index) public onlyCustomer(_index) orderDelivered(_index) {\r\n        Order storage order = orders[_index];\r\n        emit OrderDeclined(_index, order.supplier, order.deliveryCompany);\r\n        order.status = Status.Declined;\r\n    }\r\n\r\n    // Retrieve all orders for a specific address\r\n    function getSelfOrders(address _address) public view returns (Order[] memory) {\r\n        uint256[] memory orderIndices = selfOrders[_address];\r\n        Order[] memory userOrders = new Order[](orderIndices.length);\r\n\r\n        for (uint256 i = 0; i < orderIndices.length; i++) {\r\n            userOrders[i] = orders[orderIndices[i]];\r\n        }\r\n\r\n        return userOrders;\r\n    }\r\n\r\n    // Get the total number of orders\r\n    function getOrdersCount() public view returns (uint256) {\r\n        return orders.length;\r\n    }\r\n}",
  "sourcePath": "C:\\Users\\a_zmuth\\Desktop\\Medical Supply Chain\\contracts\\MedicalSupplyChain.sol",
  "compiler": {
    "name": "solc",
    "version": "0.8.0+commit.c7dfd78e.Emscripten.clang"
  },
  "schemaVersion": "3.4.16",
  "updatedAt": "2025-01-08T00:24:49.242Z",
  "networkType": "ethereum",
  "devdoc": {
    "kind": "dev",
    "methods": {},
    "version": 1
  },
  "userdoc": {
    "kind": "user",
    "methods": {},
    "version": 1
  }
}