{
  "contractName": "MedicalSupplyChain",
  "abi": [
    {
      "anonymous": false,
      "inputs": [
        {
          "indexed": false,
          "internalType": "uint256",
          "name": "index",
          "type": "uint256"
        },
        {
          "indexed": true,
          "internalType": "address",
          "name": "supplier",
          "type": "address"
        },
        {
          "indexed": true,
          "internalType": "address",
          "name": "deliveryCompany",
          "type": "address"
        },
        {
          "indexed": true,
          "internalType": "address",
          "name": "customer",
          "type": "address"
        }
      ],
      "name": "OrderAccepted",
      "type": "event"
    },
    {
      "anonymous": false,
      "inputs": [
        {
          "indexed": false,
          "internalType": "uint256",
          "name": "index",
          "type": "uint256"
        },
        {
          "indexed": true,
          "internalType": "address",
          "name": "supplier",
          "type": "address"
        },
        {
          "indexed": true,
          "internalType": "address",
          "name": "deliveryCompany",
          "type": "address"
        },
        {
          "indexed": true,
          "internalType": "address",
          "name": "customer",
          "type": "address"
        }
      ],
      "name": "OrderCreated",
      "type": "event"
    },
    {
      "anonymous": false,
      "inputs": [
        {
          "indexed": false,
          "internalType": "uint256",
          "name": "index",
          "type": "uint256"
        },
        {
          "indexed": true,
          "internalType": "address",
          "name": "supplier",
          "type": "address"
        },
        {
          "indexed": true,
          "internalType": "address",
          "name": "deliveryCompany",
          "type": "address"
        },
        {
          "indexed": true,
          "internalType": "address",
          "name": "customer",
          "type": "address"
        }
      ],
      "name": "OrderDeclined",
      "type": "event"
    },
    {
      "anonymous": false,
      "inputs": [
        {
          "indexed": false,
          "internalType": "uint256",
          "name": "index",
          "type": "uint256"
        },
        {
          "indexed": true,
          "internalType": "address",
          "name": "supplier",
          "type": "address"
        },
        {
          "indexed": true,
          "internalType": "address",
          "name": "deliveryCompany",
          "type": "address"
        },
        {
          "indexed": true,
          "internalType": "address",
          "name": "customer",
          "type": "address"
        }
      ],
      "name": "OrderDelivered",
      "type": "event"
    },
    {
      "anonymous": false,
      "inputs": [
        {
          "indexed": false,
          "internalType": "uint256",
          "name": "index",
          "type": "uint256"
        },
        {
          "indexed": true,
          "internalType": "address",
          "name": "supplier",
          "type": "address"
        },
        {
          "indexed": true,
          "internalType": "address",
          "name": "deliveryCompany",
          "type": "address"
        },
        {
          "indexed": true,
          "internalType": "address",
          "name": "customer",
          "type": "address"
        }
      ],
      "name": "OrderDelivering",
      "type": "event"
    },
    {
      "inputs": [
        {
          "internalType": "uint256",
          "name": "_index",
          "type": "uint256"
        }
      ],
      "name": "getOrder",
      "outputs": [
        {
          "internalType": "string",
          "name": "title",
          "type": "string"
        },
        {
          "internalType": "string",
          "name": "description",
          "type": "string"
        },
        {
          "internalType": "address",
          "name": "supplier",
          "type": "address"
        },
        {
          "internalType": "address",
          "name": "deliveryCompany",
          "type": "address"
        },
        {
          "internalType": "address",
          "name": "customer",
          "type": "address"
        },
        {
          "internalType": "enum MedicalSupplyChain.Status",
          "name": "status",
          "type": "uint8"
        }
      ],
      "stateMutability": "view",
      "type": "function",
      "constant": true
    },
    {
      "inputs": [
        {
          "internalType": "string",
          "name": "_title",
          "type": "string"
        },
        {
          "internalType": "string",
          "name": "_description",
          "type": "string"
        },
        {
          "internalType": "address",
          "name": "_deliveryCompany",
          "type": "address"
        },
        {
          "internalType": "address",
          "name": "_customer",
          "type": "address"
        }
      ],
      "name": "createOrder",
      "outputs": [],
      "stateMutability": "nonpayable",
      "type": "function"
    },
    {
      "inputs": [
        {
          "internalType": "uint256",
          "name": "_index",
          "type": "uint256"
        }
      ],
      "name": "startDeliveringOrder",
      "outputs": [],
      "stateMutability": "nonpayable",
      "type": "function"
    },
    {
      "inputs": [
        {
          "internalType": "uint256",
          "name": "_index",
          "type": "uint256"
        }
      ],
      "name": "stopDeliveringOrder",
      "outputs": [],
      "stateMutability": "nonpayable",
      "type": "function"
    },
    {
      "inputs": [
        {
          "internalType": "uint256",
          "name": "_index",
          "type": "uint256"
        }
      ],
      "name": "acceptOrder",
      "outputs": [],
      "stateMutability": "nonpayable",
      "type": "function"
    },
    {
      "inputs": [
        {
          "internalType": "uint256",
          "name": "_index",
          "type": "uint256"
        }
      ],
      "name": "declineOrder",
      "outputs": [],
      "stateMutability": "nonpayable",
      "type": "function"
    }
  ],
  "bytecode": "0x608060405234801561001057600080fd5b50611cd9806100206000396000f3fe608060405234801561001057600080fd5b50600436106100625760003560e01c80636c4840421461006757806384e9d53814610083578063aa6e2a721461009f578063ccbdb85c146100bb578063d09ef241146100d7578063ef18e9ed1461010c575b600080fd5b610081600480360381019061007c9190611752565b610128565b005b61009d60048036038101906100989190611752565b61049a565b005b6100b960048036038101906100b491906116bf565b61080c565b005b6100d560048036038101906100d09190611752565b610ad8565b005b6100f160048036038101906100ec9190611752565b610e91565b60405161010396959493929190611947565b60405180910390f35b61012660048036038101906101219190611752565b6111d1565b005b803373ffffffffffffffffffffffffffffffffffffffff166000828154811061017a577f4e487b7100000000000000000000000000000000000000000000000000000000600052603260045260246000fd5b906000526020600020906005020160030160009054906101000a900473ffffffffffffffffffffffffffffffffffffffff1673ffffffffffffffffffffffffffffffffffffffff1614610202576040517f08c379a00000000000000000000000000000000000000000000000000000000081526004016101f9906119f6565b60405180910390fd5b816001600481111561023d577f4e487b7100000000000000000000000000000000000000000000000000000000600052602160045260246000fd5b60008281548110610277577f4e487b7100000000000000000000000000000000000000000000000000000000600052603260045260246000fd5b906000526020600020906005020160040160149054906101000a900460ff1660048111156102ce577f4e487b7100000000000000000000000000000000000000000000000000000000600052602160045260246000fd5b1461030e576040517f08c379a000000000000000000000000000000000000000000000000000000000815260040161030590611a36565b60405180910390fd5b6000808481548110610349577f4e487b7100000000000000000000000000000000000000000000000000000000600052603260045260246000fd5b906000526020600020906005020190508060040160009054906101000a900473ffffffffffffffffffffffffffffffffffffffff1673ffffffffffffffffffffffffffffffffffffffff168160030160009054906101000a900473ffffffffffffffffffffffffffffffffffffffff1673ffffffffffffffffffffffffffffffffffffffff168260020160009054906101000a900473ffffffffffffffffffffffffffffffffffffffff1673ffffffffffffffffffffffffffffffffffffffff167feba876045358af3706e7f69426cd070cb8dccb28004307903990b6f9751bfba7876040516104399190611a56565b60405180910390a460028160040160146101000a81548160ff0219169083600481111561048f577f4e487b7100000000000000000000000000000000000000000000000000000000600052602160045260246000fd5b021790555050505050565b803373ffffffffffffffffffffffffffffffffffffffff16600082815481106104ec577f4e487b7100000000000000000000000000000000000000000000000000000000600052603260045260246000fd5b906000526020600020906005020160030160009054906101000a900473ffffffffffffffffffffffffffffffffffffffff1673ffffffffffffffffffffffffffffffffffffffff1614610574576040517f08c379a000000000000000000000000000000000000000000000000000000000815260040161056b906119f6565b60405180910390fd5b81600060048111156105af577f4e487b7100000000000000000000000000000000000000000000000000000000600052602160045260246000fd5b600082815481106105e9577f4e487b7100000000000000000000000000000000000000000000000000000000600052603260045260246000fd5b906000526020600020906005020160040160149054906101000a900460ff166004811115610640577f4e487b7100000000000000000000000000000000000000000000000000000000600052602160045260246000fd5b14610680576040517f08c379a0000000000000000000000000000000000000000000000000000000008152600401610677906119d6565b60405180910390fd5b60008084815481106106bb577f4e487b7100000000000000000000000000000000000000000000000000000000600052603260045260246000fd5b906000526020600020906005020190508060040160009054906101000a900473ffffffffffffffffffffffffffffffffffffffff1673ffffffffffffffffffffffffffffffffffffffff168160030160009054906101000a900473ffffffffffffffffffffffffffffffffffffffff1673ffffffffffffffffffffffffffffffffffffffff168260020160009054906101000a900473ffffffffffffffffffffffffffffffffffffffff1673ffffffffffffffffffffffffffffffffffffffff167f85748ddff6a058572aa7b2839db80b1cd4eb7a49b473ebe2e8183d84bdb237c1876040516107ab9190611a56565b60405180910390a460018160040160146101000a81548160ff02191690836004811115610801577f4e487b7100000000000000000000000000000000000000000000000000000000600052602160045260246000fd5b021790555050505050565b60006040518060c001604052808681526020018581526020013373ffffffffffffffffffffffffffffffffffffffff1681526020018473ffffffffffffffffffffffffffffffffffffffff1681526020018373ffffffffffffffffffffffffffffffffffffffff168152602001600060048111156108b3577f4e487b7100000000000000000000000000000000000000000000000000000000600052602160045260246000fd5b81525090506000808054905090508273ffffffffffffffffffffffffffffffffffffffff168473ffffffffffffffffffffffffffffffffffffffff163373ffffffffffffffffffffffffffffffffffffffff167f2c3ffcf5ffd176911ddab8c33354b6b2e2b76c269b75c59f7e307470f7ead6d1846040516109359190611a56565b60405180910390a46000829080600181540180825580915050600190039060005260206000209060050201600090919091909150600082015181600001908051906020019061098592919061158a565b5060208201518160010190805190602001906109a292919061158a565b5060408201518160020160006101000a81548173ffffffffffffffffffffffffffffffffffffffff021916908373ffffffffffffffffffffffffffffffffffffffff16021790555060608201518160030160006101000a81548173ffffffffffffffffffffffffffffffffffffffff021916908373ffffffffffffffffffffffffffffffffffffffff16021790555060808201518160040160006101000a81548173ffffffffffffffffffffffffffffffffffffffff021916908373ffffffffffffffffffffffffffffffffffffffff16021790555060a08201518160040160146101000a81548160ff02191690836004811115610ac9577f4e487b7100000000000000000000000000000000000000000000000000000000600052602160045260246000fd5b02179055505050505050505050565b803373ffffffffffffffffffffffffffffffffffffffff1660008281548110610b2a577f4e487b7100000000000000000000000000000000000000000000000000000000600052603260045260246000fd5b906000526020600020906005020160040160009054906101000a900473ffffffffffffffffffffffffffffffffffffffff1673ffffffffffffffffffffffffffffffffffffffff1614610bb2576040517f08c379a0000000000000000000000000000000000000000000000000000000008152600401610ba990611a16565b60405180910390fd5b8160026004811115610bed577f4e487b7100000000000000000000000000000000000000000000000000000000600052602160045260246000fd5b60008281548110610c27577f4e487b7100000000000000000000000000000000000000000000000000000000600052603260045260246000fd5b906000526020600020906005020160040160149054906101000a900460ff166004811115610c7e577f4e487b7100000000000000000000000000000000000000000000000000000000600052602160045260246000fd5b14610cbe576040517f08c379a0000000000000000000000000000000000000000000000000000000008152600401610cb5906119b6565b60405180910390fd5b6000808481548110610cf9577f4e487b7100000000000000000000000000000000000000000000000000000000600052603260045260246000fd5b906000526020600020906005020190508060040160009054906101000a900473ffffffffffffffffffffffffffffffffffffffff1673ffffffffffffffffffffffffffffffffffffffff168160030160009054906101000a900473ffffffffffffffffffffffffffffffffffffffff1673ffffffffffffffffffffffffffffffffffffffff168260020160009054906101000a900473ffffffffffffffffffffffffffffffffffffffff1673ffffffffffffffffffffffffffffffffffffffff167fff1e880224f49554bf2774d72666eda3d6156abdb8614849a754bc54ef0f877e87604051610de99190611a56565b60405180910390a4600460008581548110610e2d577f4e487b7100000000000000000000000000000000000000000000000000000000600052603260045260246000fd5b906000526020600020906005020160040160146101000a81548160ff02191690836004811115610e86577f4e487b7100000000000000000000000000000000000000000000000000000000600052602160045260246000fd5b021790555050505050565b6060806000806000806000808881548110610ed5577f4e487b7100000000000000000000000000000000000000000000000000000000600052603260045260246000fd5b90600052602060002090600502016040518060c0016040529081600082018054610efe90611b91565b80601f0160208091040260200160405190810160405280929190818152602001828054610f2a90611b91565b8015610f775780601f10610f4c57610100808354040283529160200191610f77565b820191906000526020600020905b815481529060010190602001808311610f5a57829003601f168201915b50505050508152602001600182018054610f9090611b91565b80601f0160208091040260200160405190810160405280929190818152602001828054610fbc90611b91565b80156110095780601f10610fde57610100808354040283529160200191611009565b820191906000526020600020905b815481529060010190602001808311610fec57829003601f168201915b505050505081526020016002820160009054906101000a900473ffffffffffffffffffffffffffffffffffffffff1673ffffffffffffffffffffffffffffffffffffffff1673ffffffffffffffffffffffffffffffffffffffff1681526020016003820160009054906101000a900473ffffffffffffffffffffffffffffffffffffffff1673ffffffffffffffffffffffffffffffffffffffff1673ffffffffffffffffffffffffffffffffffffffff1681526020016004820160009054906101000a900473ffffffffffffffffffffffffffffffffffffffff1673ffffffffffffffffffffffffffffffffffffffff1673ffffffffffffffffffffffffffffffffffffffff1681526020016004820160149054906101000a900460ff16600481111561115f577f4e487b7100000000000000000000000000000000000000000000000000000000600052602160045260246000fd5b6004811115611197577f4e487b7100000000000000000000000000000000000000000000000000000000600052602160045260246000fd5b815250509050806000015181602001518260400151836060015184608001518560a001519650965096509650965096505091939550919395565b803373ffffffffffffffffffffffffffffffffffffffff1660008281548110611223577f4e487b7100000000000000000000000000000000000000000000000000000000600052603260045260246000fd5b906000526020600020906005020160040160009054906101000a900473ffffffffffffffffffffffffffffffffffffffff1673ffffffffffffffffffffffffffffffffffffffff16146112ab576040517f08c379a00000000000000000000000000000000000000000000000000000000081526004016112a290611a16565b60405180910390fd5b81600260048111156112e6577f4e487b7100000000000000000000000000000000000000000000000000000000600052602160045260246000fd5b60008281548110611320577f4e487b7100000000000000000000000000000000000000000000000000000000600052603260045260246000fd5b906000526020600020906005020160040160149054906101000a900460ff166004811115611377577f4e487b7100000000000000000000000000000000000000000000000000000000600052602160045260246000fd5b146113b7576040517f08c379a00000000000000000000000000000000000000000000000000000000081526004016113ae906119b6565b60405180910390fd5b60008084815481106113f2577f4e487b7100000000000000000000000000000000000000000000000000000000600052603260045260246000fd5b906000526020600020906005020190508060040160009054906101000a900473ffffffffffffffffffffffffffffffffffffffff1673ffffffffffffffffffffffffffffffffffffffff168160030160009054906101000a900473ffffffffffffffffffffffffffffffffffffffff1673ffffffffffffffffffffffffffffffffffffffff168260020160009054906101000a900473ffffffffffffffffffffffffffffffffffffffff1673ffffffffffffffffffffffffffffffffffffffff167fcdc90f4dcfa53a56d5c85de16bd6232d92626bb006104b87ab11d74dd62b8dbb876040516114e29190611a56565b60405180910390a4600360008581548110611526577f4e487b7100000000000000000000000000000000000000000000000000000000600052603260045260246000fd5b906000526020600020906005020160040160146101000a81548160ff0219169083600481111561157f577f4e487b7100000000000000000000000000000000000000000000000000000000600052602160045260246000fd5b021790555050505050565b82805461159690611b91565b90600052602060002090601f0160209004810192826115b857600085556115ff565b82601f106115d157805160ff19168380011785556115ff565b828001600101855582156115ff579182015b828111156115fe5782518255916020019190600101906115e3565b5b50905061160c9190611610565b5090565b5b80821115611629576000816000905550600101611611565b5090565b600061164061163b84611aa2565b611a71565b90508281526020810184848401111561165857600080fd5b611663848285611b4f565b509392505050565b60008135905061167a81611c75565b92915050565b600082601f83011261169157600080fd5b81356116a184826020860161162d565b91505092915050565b6000813590506116b981611c8c565b92915050565b600080600080608085870312156116d557600080fd5b600085013567ffffffffffffffff8111156116ef57600080fd5b6116fb87828801611680565b945050602085013567ffffffffffffffff81111561171857600080fd5b61172487828801611680565b93505060406117358782880161166b565b92505060606117468782880161166b565b91505092959194509250565b60006020828403121561176457600080fd5b6000611772848285016116aa565b91505092915050565b61178481611aee565b82525050565b61179381611b3d565b82525050565b60006117a482611ad2565b6117ae8185611add565b93506117be818560208601611b5e565b6117c781611c50565b840191505092915050565b60006117df602083611add565b91507f4f72646572206973206e6f7420696e2044656c697665726564207374617475736000830152602082019050919050565b600061181f601e83611add565b91507f4f72646572206973206e6f7420696e20437265617465642073746174757300006000830152602082019050919050565b600061185f601883611add565b91507f4e6f74207468652064656c697665727920636f6d70616e7900000000000000006000830152602082019050919050565b600061189f601083611add565b91507f4e6f742074686520637573746f6d6572000000000000000000000000000000006000830152602082019050919050565b60006118df602183611add565b91507f4f72646572206973206e6f7420696e2044656c69766572696e6720737461747560008301527f73000000000000000000000000000000000000000000000000000000000000006020830152604082019050919050565b61194181611b33565b82525050565b600060c08201905081810360008301526119618189611799565b905081810360208301526119758188611799565b9050611984604083018761177b565b611991606083018661177b565b61199e608083018561177b565b6119ab60a083018461178a565b979650505050505050565b600060208201905081810360008301526119cf816117d2565b9050919050565b600060208201905081810360008301526119ef81611812565b9050919050565b60006020820190508181036000830152611a0f81611852565b9050919050565b60006020820190508181036000830152611a2f81611892565b9050919050565b60006020820190508181036000830152611a4f816118d2565b9050919050565b6000602082019050611a6b6000830184611938565b92915050565b6000604051905081810181811067ffffffffffffffff82111715611a9857611a97611c21565b5b8060405250919050565b600067ffffffffffffffff821115611abd57611abc611c21565b5b601f19601f8301169050602081019050919050565b600081519050919050565b600082825260208201905092915050565b6000611af982611b13565b9050919050565b6000819050611b0e82611c61565b919050565b600073ffffffffffffffffffffffffffffffffffffffff82169050919050565b6000819050919050565b6000611b4882611b00565b9050919050565b82818337600083830152505050565b60005b83811015611b7c578082015181840152602081019050611b61565b83811115611b8b576000848401525b50505050565b60006002820490506001821680611ba957607f821691505b60208210811415611bbd57611bbc611bf2565b5b50919050565b7f4e487b7100000000000000000000000000000000000000000000000000000000600052602160045260246000fd5b7f4e487b7100000000000000000000000000000000000000000000000000000000600052602260045260246000fd5b7f4e487b7100000000000000000000000000000000000000000000000000000000600052604160045260246000fd5b6000601f19601f8301169050919050565b60058110611c7257611c71611bc3565b5b50565b611c7e81611aee565b8114611c8957600080fd5b50565b611c9581611b33565b8114611ca057600080fd5b5056fea2646970667358221220d72b0af58a2f828ba9987b34352120ad3b8ac0a30459401f5bcf2163d8f17d3364736f6c63430008000033",
  "immutableReferences": {},
  "source": "pragma solidity ^0.8.0;\r\n// SPDX-License-Identifier: Apache-2.0\r\n\r\ncontract MedicalSupplyChain {\r\n\r\n    enum Status {Created, Delivering, Delivered, Accepted, Declined}\r\n\r\n    Order[] orders;\r\n\r\n    struct Order {\r\n        string title;\r\n        string description;\r\n        address supplier;\r\n        address deliveryCompany;\r\n        address customer;\r\n        Status status;\r\n    }\r\n\r\n// Create events to track the changes \r\n    event OrderCreated(\r\n        uint256 index,\r\n        address indexed supplier,\r\n        address indexed deliveryCompany,\r\n        address indexed customer\r\n    );\r\n\r\n    event OrderDelivering(\r\n        uint256 index,\r\n        address indexed supplier,\r\n        address indexed deliveryCompany,\r\n        address indexed customer\r\n    );\r\n\r\n    event OrderDelivered(\r\n        uint256 index,\r\n        address indexed supplier,\r\n        address indexed deliveryCompany,\r\n        address indexed customer \r\n    );\r\n\r\n    event OrderAccepted(\r\n        uint256 index,\r\n        address indexed supplier,\r\n        address indexed deliveryCompany,\r\n        address indexed customer \r\n    );\r\n\r\n    event OrderDeclined(\r\n        uint256 index,\r\n        address indexed supplier,\r\n        address indexed deliveryCompany,\r\n        address indexed customer\r\n    );\r\n\r\n    modifier onlyOrderDeliveryCompany(uint256 _index) {\r\n        require(orders[_index].deliveryCompany == msg.sender, \"Not the delivery company\");\r\n        _;\r\n    }\r\n\r\n    modifier onlyCustomer(uint256 _index) {\r\n        require(orders[_index].customer == msg.sender, \"Not the customer\");\r\n        _;\r\n    }\r\n\r\n    modifier orderCreated(uint256 _index) {\r\n        require(orders[_index].status == Status.Created, \"Order is not in Created status\");\r\n        _;\r\n    }\r\n\r\n    modifier orderDelivering(uint256 _index) {\r\n        require(orders[_index].status == Status.Delivering, \"Order is not in Delivering status\");\r\n        _;\r\n    }\r\n\r\n    modifier orderDelivered(uint256 _index) {\r\n        require(orders[_index].status == Status.Delivered, \"Order is not in Delivered status\");\r\n        _;\r\n    }\r\n\r\n    // Get details of an order (added function for querying)\r\n    function getOrder(uint256 _index) public view returns (\r\n        string memory title,\r\n        string memory description,\r\n        address supplier,\r\n        address deliveryCompany,\r\n        address customer,\r\n        Status status\r\n    ) {\r\n        Order memory order = orders[_index];\r\n        return (\r\n            order.title,\r\n            order.description,\r\n            order.supplier,\r\n            order.deliveryCompany,\r\n            order.customer,\r\n            order.status\r\n        );  \r\n    }\r\n\r\n    // Create an order and push it to the orders array\r\n    function createOrder(\r\n        string memory _title,\r\n        string memory _description,\r\n        address _deliveryCompany,\r\n        address _customer\r\n    ) public {\r\n        Order memory order = Order({\r\n            title: _title,\r\n            description: _description,\r\n            supplier: msg.sender, \r\n            deliveryCompany: _deliveryCompany,\r\n            customer: _customer,\r\n            status: Status.Created\r\n        });\r\n        uint256 index = orders.length;\r\n        emit OrderCreated(index, msg.sender, _deliveryCompany, _customer);\r\n        orders.push(order);     }\r\n\r\n    // Start delivery for an order\r\n    function startDeliveringOrder(\r\n        uint256 _index\r\n    ) public onlyOrderDeliveryCompany(_index) orderCreated(_index) {\r\n        Order storage order = orders[_index];\r\n        emit OrderDelivering(_index, order.supplier, order.deliveryCompany, order.customer);\r\n        order.status = Status.Delivering;\r\n    }\r\n\r\n    // Stop delivery for an order\r\n    function stopDeliveringOrder(\r\n        uint256 _index\r\n    ) public onlyOrderDeliveryCompany(_index) orderDelivering(_index) {\r\n        Order storage order = orders[_index];\r\n        emit OrderDelivered(_index, order.supplier, order.deliveryCompany, order.customer);\r\n        order.status = Status.Delivered;\r\n    }\r\n\r\n    // Accept the order\r\n    function acceptOrder(\r\n        uint256 _index\r\n    ) public onlyCustomer(_index) orderDelivered(_index) {\r\n        Order storage order = orders[_index];\r\n        emit OrderAccepted(_index, order.supplier, order.deliveryCompany, order.customer);\r\n        orders[_index].status = Status.Accepted;\r\n    }\r\n\r\n    // Decline the order\r\n    function declineOrder(\r\n        uint256 _index\r\n    ) public onlyCustomer(_index) orderDelivered(_index) {\r\n        Order storage order = orders[_index];\r\n        emit OrderDeclined(_index, order.supplier, order.deliveryCompany, order.customer);\r\n        orders[_index].status = Status.Declined;\r\n    }\r\n\r\n}\r\n",
  "sourcePath": "C:\\Users\\a_zmuth\\Desktop\\Medical Supply Chain\\contracts\\MedicalSupplyChain.sol",
  "compiler": {
    "name": "solc",
    "version": "0.8.0+commit.c7dfd78e.Emscripten.clang"
  },
  "schemaVersion": "3.4.16",
  "updatedAt": "2024-12-21T23:09:32.094Z",
  "networkType": "ethereum",
  "devdoc": {
    "kind": "dev",
    "methods": {},
    "version": 1
  },
  "userdoc": {
    "kind": "user",
    "methods": {},
    "version": 1
  }
}